{
  "_format": "hh-sol-artifact-1",
  "contractName": "VoiceProofRegistry",
  "sourceName": "contracts/VoiceProofRegistry.sol",
  "abi": [
    {
      "anonymous": false,
      "inputs": [
        {
          "indexed": true,
          "internalType": "bytes32",
          "name": "voiceHash",
          "type": "bytes32"
        },
        {
          "indexed": true,
          "internalType": "address",
          "name": "submitter",
          "type": "address"
        },
        {
          "indexed": false,
          "internalType": "uint64",
          "name": "blockTime",
          "type": "uint64"
        }
      ],
      "name": "VoiceRecorded",
      "type": "event"
    },
    {
      "anonymous": false,
      "inputs": [
        {
          "indexed": true,
          "internalType": "bytes32",
          "name": "voiceHash",
          "type": "bytes32"
        },
        {
          "indexed": true,
          "internalType": "address",
          "name": "submitter",
          "type": "address"
        }
      ],
      "name": "VoiceRevoked",
      "type": "event"
    },
    {
      "inputs": [
        {
          "internalType": "bytes32",
          "name": "",
          "type": "bytes32"
        }
      ],
      "name": "exists",
      "outputs": [
        {
          "internalType": "bool",
          "name": "",
          "type": "bool"
        }
      ],
      "stateMutability": "view",
      "type": "function"
    },
    {
      "inputs": [
        {
          "internalType": "address",
          "name": "user",
          "type": "address"
        }
      ],
      "name": "getUserRecords",
      "outputs": [
        {
          "internalType": "bytes32[]",
          "name": "",
          "type": "bytes32[]"
        }
      ],
      "stateMutability": "view",
      "type": "function"
    },
    {
      "inputs": [
        {
          "internalType": "bytes32",
          "name": "voiceHash",
          "type": "bytes32"
        },
        {
          "internalType": "uint64",
          "name": "timestamp",
          "type": "uint64"
        },
        {
          "internalType": "int64",
          "name": "latitude",
          "type": "int64"
        },
        {
          "internalType": "int64",
          "name": "longitude",
          "type": "int64"
        }
      ],
      "name": "record",
      "outputs": [],
      "stateMutability": "nonpayable",
      "type": "function"
    },
    {
      "inputs": [
        {
          "internalType": "bytes32",
          "name": "",
          "type": "bytes32"
        }
      ],
      "name": "records",
      "outputs": [
        {
          "internalType": "address",
          "name": "submitter",
          "type": "address"
        },
        {
          "internalType": "bytes32",
          "name": "voiceHash",
          "type": "bytes32"
        },
        {
          "internalType": "int64",
          "name": "latitude",
          "type": "int64"
        },
        {
          "internalType": "int64",
          "name": "longitude",
          "type": "int64"
        },
        {
          "internalType": "uint64",
          "name": "timestamp",
          "type": "uint64"
        },
        {
          "internalType": "uint64",
          "name": "blockTime",
          "type": "uint64"
        },
        {
          "internalType": "bool",
          "name": "revoked",
          "type": "bool"
        }
      ],
      "stateMutability": "view",
      "type": "function"
    },
    {
      "inputs": [
        {
          "internalType": "bytes32",
          "name": "voiceHash",
          "type": "bytes32"
        }
      ],
      "name": "revoke",
      "outputs": [],
      "stateMutability": "nonpayable",
      "type": "function"
    },
    {
      "inputs": [
        {
          "internalType": "bytes32",
          "name": "voiceHash",
          "type": "bytes32"
        }
      ],
      "name": "verify",
      "outputs": [
        {
          "internalType": "bool",
          "name": "valid",
          "type": "bool"
        },
        {
          "internalType": "address",
          "name": "submitter",
          "type": "address"
        },
        {
          "internalType": "uint64",
          "name": "blockTime",
          "type": "uint64"
        }
      ],
      "stateMutability": "view",
      "type": "function"
    }
  ],
  "bytecode": "0x608060405234801561001057600080fd5b50610eb1806100206000396000f3fe608060405234801561001057600080fd5b50600436106100625760003560e01c806301e647251461006757806338a699a41461009d57806339a08e92146100cd57806351096b02146100e957806375e3661614610119578063b75c7dc61461014b575b600080fd5b610081600480360381019061007c91906108a4565b610167565b604051610094979695949392919061097b565b60405180910390f35b6100b760048036038101906100b291906108a4565b610218565b6040516100c491906109ea565b60405180910390f35b6100e760048036038101906100e29190610a5d565b610238565b005b61010360048036038101906100fe9190610af0565b6105a7565b6040516101109190610bdb565b60405180910390f35b610133600480360381019061012e91906108a4565b61063e565b60405161014293929190610bfd565b60405180910390f35b610165600480360381019061016091906108a4565b6106ee565b005b60006020528060005260406000206000915090508060000160009054906101000a900473ffffffffffffffffffffffffffffffffffffffff16908060010154908060020160009054906101000a900460070b908060020160089054906101000a900460070b908060020160109054906101000a900467ffffffffffffffff16908060020160189054906101000a900467ffffffffffffffff16908060030160009054906101000a900460ff16905087565b60016020528060005260406000206000915054906101000a900460ff1681565b6001600085815260200190815260200160002060009054906101000a900460ff1615610299576040517f08c379a000000000000000000000000000000000000000000000000000000000815260040161029090610c91565b60405180910390fd5b8267ffffffffffffffff164267ffffffffffffffff16101580156102d45750610e1083426102c79190610ce0565b67ffffffffffffffff1611155b610313576040517f08c379a000000000000000000000000000000000000000000000000000000000815260040161030a90610d68565b60405180910390fd5b6040518060e001604052803373ffffffffffffffffffffffffffffffffffffffff1681526020018581526020018360070b81526020018260070b81526020018467ffffffffffffffff1681526020014267ffffffffffffffff1681526020016000151581525060008086815260200190815260200160002060008201518160000160006101000a81548173ffffffffffffffffffffffffffffffffffffffff021916908373ffffffffffffffffffffffffffffffffffffffff1602179055506020820151816001015560408201518160020160006101000a81548167ffffffffffffffff021916908360070b67ffffffffffffffff16021790555060608201518160020160086101000a81548167ffffffffffffffff021916908360070b67ffffffffffffffff16021790555060808201518160020160106101000a81548167ffffffffffffffff021916908367ffffffffffffffff16021790555060a08201518160020160186101000a81548167ffffffffffffffff021916908367ffffffffffffffff16021790555060c08201518160030160006101000a81548160ff021916908315150217905550905050600180600086815260200190815260200160002060006101000a81548160ff021916908315150217905550600260003373ffffffffffffffffffffffffffffffffffffffff1673ffffffffffffffffffffffffffffffffffffffff1681526020019081526020016000208490806001815401808255809150506001900390600052602060002001600090919091909150553373ffffffffffffffffffffffffffffffffffffffff16847fb7b980d3a8ed1eb1527dab0908e68c915c690b9d9183f1a15f90d09d849f9c2e426040516105999190610d88565b60405180910390a350505050565b6060600260008373ffffffffffffffffffffffffffffffffffffffff1673ffffffffffffffffffffffffffffffffffffffff16815260200190815260200160002080548060200260200160405190810160405280929190818152602001828054801561063257602002820191906000526020600020905b81548152602001906001019080831161061e575b50505050509050919050565b60008060006001600085815260200190815260200160002060009054906101000a900460ff166106785760008060009250925092506106e7565b600080600086815260200190815260200160002090508060030160009054906101000a900460ff16158160000160009054906101000a900473ffffffffffffffffffffffffffffffffffffffff168260020160189054906101000a900467ffffffffffffffff16935093509350505b9193909250565b3373ffffffffffffffffffffffffffffffffffffffff1660008083815260200190815260200160002060000160009054906101000a900473ffffffffffffffffffffffffffffffffffffffff1673ffffffffffffffffffffffffffffffffffffffff1614610791576040517f08c379a000000000000000000000000000000000000000000000000000000000815260040161078890610def565b60405180910390fd5b60008082815260200190815260200160002060030160009054906101000a900460ff16156107f4576040517f08c379a00000000000000000000000000000000000000000000000000000000081526004016107eb90610e5b565b60405180910390fd5b600160008083815260200190815260200160002060030160006101000a81548160ff0219169083151502179055503373ffffffffffffffffffffffffffffffffffffffff16817f9e778b3363c2d8fbf6fd09f75dec77ee5bdfe7c9a3cd076399d2976eafba34f660405160405180910390a350565b600080fd5b6000819050919050565b6108818161086e565b811461088c57600080fd5b50565b60008135905061089e81610878565b92915050565b6000602082840312156108ba576108b9610869565b5b60006108c88482850161088f565b91505092915050565b600073ffffffffffffffffffffffffffffffffffffffff82169050919050565b60006108fc826108d1565b9050919050565b61090c816108f1565b82525050565b61091b8161086e565b82525050565b60008160070b9050919050565b61093781610921565b82525050565b600067ffffffffffffffff82169050919050565b61095a8161093d565b82525050565b60008115159050919050565b61097581610960565b82525050565b600060e082019050610990600083018a610903565b61099d6020830189610912565b6109aa604083018861092e565b6109b7606083018761092e565b6109c46080830186610951565b6109d160a0830185610951565b6109de60c083018461096c565b98975050505050505050565b60006020820190506109ff600083018461096c565b92915050565b610a0e8161093d565b8114610a1957600080fd5b50565b600081359050610a2b81610a05565b92915050565b610a3a81610921565b8114610a4557600080fd5b50565b600081359050610a5781610a31565b92915050565b60008060008060808587031215610a7757610a76610869565b5b6000610a858782880161088f565b9450506020610a9687828801610a1c565b9350506040610aa787828801610a48565b9250506060610ab887828801610a48565b91505092959194509250565b610acd816108f1565b8114610ad857600080fd5b50565b600081359050610aea81610ac4565b92915050565b600060208284031215610b0657610b05610869565b5b6000610b1484828501610adb565b91505092915050565b600081519050919050565b600082825260208201905092915050565b6000819050602082019050919050565b610b528161086e565b82525050565b6000610b648383610b49565b60208301905092915050565b6000602082019050919050565b6000610b8882610b1d565b610b928185610b28565b9350610b9d83610b39565b8060005b83811015610bce578151610bb58882610b58565b9750610bc083610b70565b925050600181019050610ba1565b5085935050505092915050565b60006020820190508181036000830152610bf58184610b7d565b905092915050565b6000606082019050610c12600083018661096c565b610c1f6020830185610903565b610c2c6040830184610951565b949350505050565b600082825260208201905092915050565b7f616c7265616479207265636f7264656400000000000000000000000000000000600082015250565b6000610c7b601083610c34565b9150610c8682610c45565b602082019050919050565b60006020820190508181036000830152610caa81610c6e565b9050919050565b7f4e487b7100000000000000000000000000000000000000000000000000000000600052601160045260246000fd5b6000610ceb8261093d565b9150610cf68361093d565b9250828203905067ffffffffffffffff811115610d1657610d15610cb1565b5b92915050565b7f74696d657374616d70206f7574206f662072616e676500000000000000000000600082015250565b6000610d52601683610c34565b9150610d5d82610d1c565b602082019050919050565b60006020820190508181036000830152610d8181610d45565b9050919050565b6000602082019050610d9d6000830184610951565b92915050565b7f6e6f74207375626d697474657200000000000000000000000000000000000000600082015250565b6000610dd9600d83610c34565b9150610de482610da3565b602082019050919050565b60006020820190508181036000830152610e0881610dcc565b9050919050565b7f616c7265616479207265766f6b65640000000000000000000000000000000000600082015250565b6000610e45600f83610c34565b9150610e5082610e0f565b602082019050919050565b60006020820190508181036000830152610e7481610e38565b905091905056fea264697066735822122006153637a9a8e86f6b66dc050da5a4872c780e651b80ca837375770e0ba64ce764736f6c63430008180033",
  "linkReferences": {},
  "deployedLinkReferences": {}
}